{
  "contractName": "TransferToken",
  "abi": [
    {
      "inputs": [
        {
          "internalType": "address",
          "name": "_first",
          "type": "address"
        },
        {
          "internalType": "uint256",
          "name": "_price",
          "type": "uint256"
        }
      ],
      "stateMutability": "nonpayable",
      "type": "constructor"
    },
    {
      "anonymous": false,
      "inputs": [
        {
          "indexed": true,
          "internalType": "address",
          "name": "previousOwner",
          "type": "address"
        },
        {
          "indexed": true,
          "internalType": "address",
          "name": "newOwner",
          "type": "address"
        }
      ],
      "name": "OwnershipTransferred",
      "type": "event"
    },
    {
      "inputs": [],
      "name": "owner",
      "outputs": [
        {
          "internalType": "address",
          "name": "",
          "type": "address"
        }
      ],
      "stateMutability": "view",
      "type": "function"
    },
    {
      "inputs": [],
      "name": "renounceOwnership",
      "outputs": [],
      "stateMutability": "nonpayable",
      "type": "function"
    },
    {
      "inputs": [
        {
          "internalType": "address",
          "name": "newOwner",
          "type": "address"
        }
      ],
      "name": "transferOwnership",
      "outputs": [],
      "stateMutability": "nonpayable",
      "type": "function"
    },
    {
      "inputs": [],
      "name": "updatePrice",
      "outputs": [],
      "stateMutability": "nonpayable",
      "type": "function"
    },
    {
      "inputs": [
        {
          "internalType": "address",
          "name": "_tokenAddress",
          "type": "address"
        },
        {
          "internalType": "uint256",
          "name": "_amount",
          "type": "uint256"
        }
      ],
      "name": "deposit",
      "outputs": [],
      "stateMutability": "nonpayable",
      "type": "function"
    },
    {
      "inputs": [
        {
          "internalType": "address",
          "name": "_tokenAddress",
          "type": "address"
        },
        {
          "internalType": "uint256",
          "name": "_amount",
          "type": "uint256"
        }
      ],
      "name": "exchange",
      "outputs": [],
      "stateMutability": "nonpayable",
      "type": "function"
    }
  ],
  "bytecode": "0x608060405234801561001057600080fd5b50604051610b16380380610b16833981810160405281019061003291906101e6565b61006061004c6100f0640100000000026401000000009004565b6100f8640100000000026401000000009004565b81600260006101000a81548173ffffffffffffffffffffffffffffffffffffffff021916908373ffffffffffffffffffffffffffffffffffffffff1602179055508060038190555033600160006101000a81548173ffffffffffffffffffffffffffffffffffffffff021916908373ffffffffffffffffffffffffffffffffffffffff1602179055505050610295565b600033905090565b60008060009054906101000a900473ffffffffffffffffffffffffffffffffffffffff169050816000806101000a81548173ffffffffffffffffffffffffffffffffffffffff021916908373ffffffffffffffffffffffffffffffffffffffff1602179055508173ffffffffffffffffffffffffffffffffffffffff168173ffffffffffffffffffffffffffffffffffffffff167f8be0079c531659141344cd1fd0a4f28419497f9722a3daafe3b4186f6b6457e060405160405180910390a35050565b6000815190506101cb81610267565b92915050565b6000815190506101e08161027e565b92915050565b600080604083850312156101fd576101fc610262565b5b600061020b858286016101bc565b925050602061021c858286016101d1565b9150509250929050565b600061023182610238565b9050919050565b600073ffffffffffffffffffffffffffffffffffffffff82169050919050565b6000819050919050565b600080fd5b61027081610226565b811461027b57600080fd5b50565b61028781610258565b811461029257600080fd5b50565b610872806102a46000396000f3fe608060405234801561001057600080fd5b506004361061007f576000357c010000000000000000000000000000000000000000000000000000000090048063045d03891461008457806347e7ef24146100a0578063673a7e28146100bc578063715018a6146100c65780638da5cb5b146100d0578063f2fde38b146100ee575b600080fd5b61009e600480360381019061009991906105be565b61010a565b005b6100ba60048036038101906100b591906105be565b61010e565b005b6100c461025f565b005b6100ce6102dd565b005b6100d8610365565b6040516100e5919061068f565b60405180910390f35b61010860048036038101906101039190610591565b61038e565b005b5050565b610116610486565b73ffffffffffffffffffffffffffffffffffffffff16610134610365565b73ffffffffffffffffffffffffffffffffffffffff161461018a576040517f08c379a000000000000000000000000000000000000000000000000000000000815260040161018190610701565b60405180910390fd5b60008073ffffffffffffffffffffffffffffffffffffffff166323b872dd600160009054906101000a900473ffffffffffffffffffffffffffffffffffffffff1630856040518463ffffffff167c0100000000000000000000000000000000000000000000000000000000028152600401610207939291906106aa565b602060405180830381600087803b15801561022157600080fd5b505af1158015610235573d6000803e3d6000fd5b505050506040513d601f19601f8201168201806040525081019061025991906105fe565b50505050565b610267610486565b73ffffffffffffffffffffffffffffffffffffffff16610285610365565b73ffffffffffffffffffffffffffffffffffffffff16146102db576040517f08c379a00000000000000000000000000000000000000000000000000000000081526004016102d290610701565b60405180910390fd5b565b6102e5610486565b73ffffffffffffffffffffffffffffffffffffffff16610303610365565b73ffffffffffffffffffffffffffffffffffffffff1614610359576040517f08c379a000000000000000000000000000000000000000000000000000000000815260040161035090610701565b60405180910390fd5b610363600061048e565b565b60008060009054906101000a900473ffffffffffffffffffffffffffffffffffffffff16905090565b610396610486565b73ffffffffffffffffffffffffffffffffffffffff166103b4610365565b73ffffffffffffffffffffffffffffffffffffffff161461040a576040517f08c379a000000000000000000000000000000000000000000000000000000000815260040161040190610701565b60405180910390fd5b600073ffffffffffffffffffffffffffffffffffffffff168173ffffffffffffffffffffffffffffffffffffffff16141561047a576040517f08c379a0000000000000000000000000000000000000000000000000000000008152600401610471906106e1565b60405180910390fd5b6104838161048e565b50565b600033905090565b60008060009054906101000a900473ffffffffffffffffffffffffffffffffffffffff169050816000806101000a81548173ffffffffffffffffffffffffffffffffffffffff021916908373ffffffffffffffffffffffffffffffffffffffff1602179055508173ffffffffffffffffffffffffffffffffffffffff168173ffffffffffffffffffffffffffffffffffffffff167f8be0079c531659141344cd1fd0a4f28419497f9722a3daafe3b4186f6b6457e060405160405180910390a35050565b600081359050610561816107f7565b92915050565b6000815190506105768161080e565b92915050565b60008135905061058b81610825565b92915050565b6000602082840312156105a7576105a661077a565b5b60006105b584828501610552565b91505092915050565b600080604083850312156105d5576105d461077a565b5b60006105e385828601610552565b92505060206105f48582860161057c565b9150509250929050565b6000602082840312156106145761061361077a565b5b600061062284828501610567565b91505092915050565b61063481610732565b82525050565b6000610647602683610721565b91506106528261077f565b604082019050919050565b600061066a602083610721565b9150610675826107ce565b602082019050919050565b61068981610770565b82525050565b60006020820190506106a4600083018461062b565b92915050565b60006060820190506106bf600083018661062b565b6106cc602083018561062b565b6106d96040830184610680565b949350505050565b600060208201905081810360008301526106fa8161063a565b9050919050565b6000602082019050818103600083015261071a8161065d565b9050919050565b600082825260208201905092915050565b600061073d82610750565b9050919050565b60008115159050919050565b600073ffffffffffffffffffffffffffffffffffffffff82169050919050565b6000819050919050565b600080fd5b7f4f776e61626c653a206e6577206f776e657220697320746865207a65726f206160008201527f6464726573730000000000000000000000000000000000000000000000000000602082015250565b7f4f776e61626c653a2063616c6c6572206973206e6f7420746865206f776e6572600082015250565b61080081610732565b811461080b57600080fd5b50565b61081781610744565b811461082257600080fd5b50565b61082e81610770565b811461083957600080fd5b5056fea2646970667358221220cbc91aa82223785b9e4410b22a262ea5b25f738a50235573f14ce921f1e4e3c064736f6c63430008070033",
  "immutableReferences": {},
  "source": "pragma solidity ^0.8.7;\r\n\r\nimport \"@openzeppelin/contracts/access/Ownable.sol\";\r\nimport \"./Token.sol\";\r\n\r\ncontract TransferToken is Ownable {\r\n    address admin;\r\n    address first;\r\n    uint price;\r\n\r\n    constructor(address _first, uint _price) {\r\n        first = _first;\r\n        price = _price;\r\n        admin = msg.sender; //owner()\r\n    }\r\n\r\n    function updatePrice() public onlyOwner {}\r\n\r\n    function deposit(address _tokenAddress, uint _amount) public onlyOwner {\r\n\r\n        Token token;\r\n        token.transferFrom(admin, address(this), _amount);\r\n    }\r\n\r\n    function exchange(address _tokenAddress, uint _amount) public {\r\n\r\n//        Token token = Token(_tokenAddress);\r\n//        uint amount2 = price * _amount;\r\n    }\r\n}",
  "sourcePath": "D:\\Token\\contracts\\TransferToken.sol",
  "compiler": {
    "name": "solc",
    "version": "0.8.7+commit.e28d00a7.Emscripten.clang"
  },
  "schemaVersion": "3.4.3",
  "updatedAt": "2021-09-29T12:58:55.077Z",
  "devdoc": {
    "kind": "dev",
    "methods": {
      "owner()": {
        "details": "Returns the address of the current owner."
      },
      "renounceOwnership()": {
        "details": "Leaves the contract without owner. It will not be possible to call `onlyOwner` functions anymore. Can only be called by the current owner. NOTE: Renouncing ownership will leave the contract without an owner, thereby removing any functionality that is only available to the owner."
      },
      "transferOwnership(address)": {
        "details": "Transfers ownership of the contract to a new account (`newOwner`). Can only be called by the current owner."
      }
    },
    "version": 1
  },
  "userdoc": {
    "kind": "user",
    "methods": {},
    "version": 1
  }
}